:020000040000FA
:020000003228A4
:040002000034003492
:08000800F500030E8312F6005F
:100010000B1811200B192B20760E8300F50E750E90
:100020000900F31B2F2814309A210519252883165F
:100030000512831271127108850001309A21851E04
:10004000F315F3178316051683128316961283127F
:1000500005080B1008008B1E08002F2808009801C7
:10006000181431289001F301F12005080B108B17AB
:10007000630000000D21F3191B29CA21F31B4B2833
:1000800064008316C0300105073881000310831215
:1000900081018B161C2A7212720887004030FE0004
:1000A0008316073092003C30831295000330930092
:1000B0008C10920112158316871232309A21831206
:1000C000F001F401F301F3170330900099088C015B
:1000D0008F018E018C1D6A288E0199088C118C1D50
:1000E0006F280E088E0199088C11AF3E213E031C2B
:1000F0006F28191F7D28F3167E28F3120930FA00A5
:10010000D220F3186128F31E7E28FA0B80282630AF
:1001100084000B30FA000530F800F901FC01FD0104
:10012000D220F31861280310F31A0314F90DF31AFF
:10013000FC0AF80B90287908FD067A030319A32816
:100140007C186128000079088000840A0530F800D6
:10015000F901FC01FA0B90287D08FE39031D612886
:10016000B220612826308400FB0A0330FB03031908
:10017000BB280B3EB628F7007708F0000008B42132
:10018000F70A840A31300402031DBC28F3192F2812
:100190007110710885007216720887008316871621
:1001A000D02808008C1DD2280E088E01F400990872
:1001B0008C11CF3E213E731FDF28031CF314031C58
:1001C000E928731BE72873178C1DE428D2287313C2
:1001D00008007408AF3E213E031CF3142030F306E0
:0201E000080015
:0E01E20083169101811396161615831285015E
:1001F0008701F101F201721672088700711471080B
:1002000085008316071205108712851083120730A8
:100210009900323092218B1508000708A100A1092E
:10022000A10CFB0DA10CFB0DA10CFB0DA10CFB0DFA
:100230000F30FB0508007B08A2008B132830A000BC
:1002400064309A2105192F28A00B202972127208F8
:100250008700711071088500051D2C297114710823
:10026000850026308400FD010A30FA00C830A00065
:1002700064309A2105196B290D21FC017110710858
:100280008500721672088700051D442971147108D3
:1002900085007212720887007B08A100A10C031868
:1002A000FC0AA10C0318FC0AA10C0318FC0AA10CFF
:1002B0000318FC0A0310FB0DFD067C18FB0A7B08E3
:1002C0008000840AFA0B362903107D0D8000220875
:1002D000FB00B2202F28A00B38292F280F39303EE1
:1002E000A300393C031876290730A3072308080028
:1002F0008021A40070088021A40EA404240E08000C
:10030000A3003030A3022308093C031C89292308D9
:1003100008001130A3022308053C031C0034230805
:100320000A3E0800A3009429952996290000A30BF2
:1003300093290800A4006430A3009E299F29A029C6
:100340000000A30B9D29A40B9B290800A300030810
:10035000A400230883169B001C141A088312A30010
:100360002408830023080800A3000308A40023082E
:1003700083169A008312700883169B001C15553053
:100380009D00AA309D009C149C18C4298312240847
:10039000830008008316851402309100AA3099006A
:1003A00083120230990008000310A500A50C7112F9
:1003B00071088500FF308F008E0125088E028E0A9D
:1003C000073090000C10080025080C1CE5298E024F
:1003D0008E0A8316051283120C108F090C1CEE294D
:1003E0008E028E0A8316051683120C108F090314D1
:1003F000080025080C1CFA298E028E0A83160516A1
:1004000083120C108F090C1C032A8E028E0A83168D
:10041000051283120C108F09031008008316103088
:100420008506831208008316103085068312831612
:10043000103085068312080045223308D42181013B
:1004400022221F2A263084000B30B500412241228F
:1004500041224122412241224122412241220008DF
:10046000B900B90DB90DB90D0530B600B90D0318B5
:100470004122031C4322B60B362A840AB50B2F2ACD
:100480000800E4210800F92908000230A621B10083
:100490000030A621B2000130A621B300FB0A0330D0
:1004A000FB030319552A0B3E502A57220800B500BA
:1004B0003207BA00263084003508A6218000840A5D
:0C04C000B50A3A083502031D5C2A08004A
:02400E00E4309C
:104200000B00400000000A0009000C000A000C002E
:1042100018000C0018000500000000000F00090045
:104220000C0011000C000A00050000000C00090041
:104230001C000C0003000C000A000C001B000C000A
:104240001E000C001D001C000500180005000000E9
:10425000050005000C0005000F000A0014000C000A
:104260001D000C001D000C001200050000000F00D6
:104270000F001A000F000A000F00140005000000D4
:104280000C0011000C000A0000000F0005000C00DB
:104290000A0005000500050000000C0003000600F0
:1042A0000C001D000C000900050000000F000500B7
:1042B0000C000A001C000C0006000C000A000C0098
:1042C00012000F000C000C000A0016000500000090
:1042D0000F0009000C0011000C000A00050000008E
:1042E0001C000F0005000C000A000F000F000C005E
:1042F00003000F00050008000C000900000000008A
:1043000000000000000000000000000004000C009D
:1043100005000F000A000C001D000C001D000C0021
:10432000120012000C0005000F000A000C001D0016
:104330000C001D000C00120012000C0005000F0004
:104340000A000C001D000C001D000C0012001200E1
:104350000C0005000F000A000C001D000C001D00E1
:064360000C001200120027
:00000001FF
